:020000040000FA
:100000001C28FF30A0000F30A100A10B0528A00B79
:100010000328080022088207ED342834CE346E34D9
:100020002B346734E7342C34EF342F34AF34E334DB
:10003000C534EA34C7348734831207309F009813DD
:1000400083160030860083128601FF30A300A30AC6
:10005000231E2B2825282308A2000A20A600A60973
:100060002612FF30A400A40A241E372827282408BB
:10007000A2000A208600061601202608860001201C
:02008000332823
:040082000034003412
:02400E00583F19
:00000001FF
