:020000040000FA
:100000002B28FF30A000FF30A100A10B0528A00B7A
:1000100003280800FD3086000120FF308600012003
:100020000518851814280A280800FB3086000120CE
:10003000FF3086000120051C851C1F28152808009C
:10004000F73086000120FF30860001200518851C4E
:100050002A2820280800831207309F00981383164F
:1000600000308600033085008312FF308600051CB7
:1000700085183C28FE3086000518851840280A207F
:10008000051C851C442815200518851C482820209F
:0200900037280F
:040092000034003402
:02400E00583F19
:00000001FF
