:020000040000FA
:100000001C280F30A000FF30A100A10B0528A00B79
:100010000328080023088207ED342834CE346E34D8
:100020002B346734E7342C34EF342F34AF34E334DB
:10003000C534EA34C7348734831207309F009813DD
:1000400083160030860083128601FF30A400A40AC4
:10005000A418A41D2C2825282408A3000A20A700E2
:10006000A7092712FF30A500A50AA518A51D392844
:1000700027282508A3000A20860006160120270845
:0600800086000120342877
:04008600003400340E
:02400E00583F19
:00000001FF
